{
  "_format": "hh-sol-artifact-1",
  "contractName": "Cal3dly",
  "sourceName": "contracts/Cal3dly.sol",
  "abi": [
    {
      "inputs": [
        {
          "internalType": "address",
          "name": "_owner",
          "type": "address"
        },
        {
          "internalType": "string",
          "name": "_title",
          "type": "string"
        },
        {
          "internalType": "string",
          "name": "_description",
          "type": "string"
        },
        {
          "internalType": "uint256",
          "name": "_startTime",
          "type": "uint256"
        },
        {
          "internalType": "uint256",
          "name": "_endTime",
          "type": "uint256"
        }
      ],
      "name": "addAppointment",
      "outputs": [],
      "stateMutability": "nonpayable",
      "type": "function"
    },
    {
      "inputs": [
        {
          "internalType": "string",
          "name": "_title",
          "type": "string"
        },
        {
          "internalType": "address",
          "name": "_attendee",
          "type": "address"
        }
      ],
      "name": "cancelAppointment",
      "outputs": [],
      "stateMutability": "nonpayable",
      "type": "function"
    },
    {
      "inputs": [
        {
          "internalType": "address",
          "name": "_owner",
          "type": "address"
        },
        {
          "internalType": "string",
          "name": "_title",
          "type": "string"
        }
      ],
      "name": "cancelAppointment",
      "outputs": [],
      "stateMutability": "nonpayable",
      "type": "function"
    },
    {
      "inputs": [
        {
          "internalType": "address",
          "name": "_owner",
          "type": "address"
        }
      ],
      "name": "getAppointments",
      "outputs": [
        {
          "components": [
            {
              "internalType": "string",
              "name": "title",
              "type": "string"
            },
            {
              "internalType": "string",
              "name": "description",
              "type": "string"
            },
            {
              "internalType": "uint256",
              "name": "startTime",
              "type": "uint256"
            },
            {
              "internalType": "uint256",
              "name": "endTime",
              "type": "uint256"
            },
            {
              "internalType": "address",
              "name": "attendee",
              "type": "address"
            }
          ],
          "internalType": "struct Cal3dly.Appointment[]",
          "name": "",
          "type": "tuple[]"
        }
      ],
      "stateMutability": "view",
      "type": "function"
    }
  ],
  "bytecode": "0x608060405234801561001057600080fd5b50611e11806100206000396000f3fe608060405234801561001057600080fd5b506004361061004c5760003560e01c80633f6970e9146100515780635daa2a931461006d57806367368edc146100895780637b75cfb6146100a5575b600080fd5b61006b6004803603810190610066919061186d565b6100d5565b005b61008760048036038101906100829190611914565b610354565b005b6100a3600480360381019061009e9190611819565b610bd2565b005b6100bf60048036038101906100ba91906117f0565b611450565b6040516100cc9190611b0d565b60405180910390f35b60006040518060a001604052808681526020018581526020018481526020018381526020013373ffffffffffffffffffffffffffffffffffffffff1681525090506000808773ffffffffffffffffffffffffffffffffffffffff1673ffffffffffffffffffffffffffffffffffffffff168152602001908152602001600020819080600181540180825580915050600190039060005260206000209060050201600090919091909150600082015181600001908051906020019061019a92919061167b565b5060208201518160010190805190602001906101b792919061167b565b50604082015181600201556060820151816003015560808201518160040160006101000a81548173ffffffffffffffffffffffffffffffffffffffff021916908373ffffffffffffffffffffffffffffffffffffffff160217905550505085816080019073ffffffffffffffffffffffffffffffffffffffff16908173ffffffffffffffffffffffffffffffffffffffff16815250506000803373ffffffffffffffffffffffffffffffffffffffff1673ffffffffffffffffffffffffffffffffffffffff16815260200190815260200160002081908060018154018082558091505060019003906000526020600020906005020160009091909190915060008201518160000190805190602001906102d192919061167b565b5060208201518160010190805190602001906102ee92919061167b565b50604082015181600201556060820151816003015560808201518160040160006101000a81548173ffffffffffffffffffffffffffffffffffffffff021916908373ffffffffffffffffffffffffffffffffffffffff1602179055505050505050505050565b60008060003373ffffffffffffffffffffffffffffffffffffffff1673ffffffffffffffffffffffffffffffffffffffff168152602001908152602001600020805480602002602001604051908101604052809291908181526020016000905b8282101561057457838290600052602060002090600502016040518060a00160405290816000820180546103e790611c63565b80601f016020809104026020016040519081016040528092919081815260200182805461041390611c63565b80156104605780601f1061043557610100808354040283529160200191610460565b820191906000526020600020905b81548152906001019060200180831161044357829003601f168201915b5050505050815260200160018201805461047990611c63565b80601f01602080910402602001604051908101604052809291908181526020018280546104a590611c63565b80156104f25780601f106104c7576101008083540402835291602001916104f2565b820191906000526020600020905b8154815290600101906020018083116104d557829003601f168201915b5050505050815260200160028201548152602001600382015481526020016004820160009054906101000a900473ffffffffffffffffffffffffffffffffffffffff1673ffffffffffffffffffffffffffffffffffffffff1673ffffffffffffffffffffffffffffffffffffffff1681525050815260200190600101906103b4565b50505050905060005b815181101561078f578273ffffffffffffffffffffffffffffffffffffffff168282815181106105d6577f4e487b7100000000000000000000000000000000000000000000000000000000600052603260045260246000fd5b60200260200101516080015173ffffffffffffffffffffffffffffffffffffffff161480156106945750836040516020016106119190611af6565b60405160208183030381529060405280519060200120828281518110610660577f4e487b7100000000000000000000000000000000000000000000000000000000600052603260045260246000fd5b60200260200101516000015160405160200161067c9190611af6565b60405160208183030381529060405280519060200120145b1561077c576000803373ffffffffffffffffffffffffffffffffffffffff1673ffffffffffffffffffffffffffffffffffffffff168152602001908152602001600020818154811061070f577f4e487b7100000000000000000000000000000000000000000000000000000000600052603260045260246000fd5b90600052602060002090600502016000808201600061072e9190611701565b60018201600061073e9190611701565b600282016000905560038201600090556004820160006101000a81549073ffffffffffffffffffffffffffffffffffffffff0219169055505061078f565b808061078790611cc6565b91505061057d565b5060008060008473ffffffffffffffffffffffffffffffffffffffff1673ffffffffffffffffffffffffffffffffffffffff168152602001908152602001600020805480602002602001604051908101604052809291908181526020016000905b828210156109b057838290600052602060002090600502016040518060a001604052908160008201805461082390611c63565b80601f016020809104026020016040519081016040528092919081815260200182805461084f90611c63565b801561089c5780601f106108715761010080835404028352916020019161089c565b820191906000526020600020905b81548152906001019060200180831161087f57829003601f168201915b505050505081526020016001820180546108b590611c63565b80601f01602080910402602001604051908101604052809291908181526020018280546108e190611c63565b801561092e5780601f106109035761010080835404028352916020019161092e565b820191906000526020600020905b81548152906001019060200180831161091157829003601f168201915b5050505050815260200160028201548152602001600382015481526020016004820160009054906101000a900473ffffffffffffffffffffffffffffffffffffffff1673ffffffffffffffffffffffffffffffffffffffff1673ffffffffffffffffffffffffffffffffffffffff1681525050815260200190600101906107f0565b50505050905060005b8151811015610bcb573373ffffffffffffffffffffffffffffffffffffffff16828281518110610a12577f4e487b7100000000000000000000000000000000000000000000000000000000600052603260045260246000fd5b60200260200101516080015173ffffffffffffffffffffffffffffffffffffffff16148015610ad0575084604051602001610a4d9190611af6565b60405160208183030381529060405280519060200120828281518110610a9c577f4e487b7100000000000000000000000000000000000000000000000000000000600052603260045260246000fd5b602002602001015160000151604051602001610ab89190611af6565b60405160208183030381529060405280519060200120145b15610bb8576000808573ffffffffffffffffffffffffffffffffffffffff1673ffffffffffffffffffffffffffffffffffffffff1681526020019081526020016000208181548110610b4b577f4e487b7100000000000000000000000000000000000000000000000000000000600052603260045260246000fd5b906000526020600020906005020160008082016000610b6a9190611701565b600182016000610b7a9190611701565b600282016000905560038201600090556004820160006101000a81549073ffffffffffffffffffffffffffffffffffffffff02191690555050610bcb565b8080610bc390611cc6565b9150506109b9565b5050505050565b60008060008473ffffffffffffffffffffffffffffffffffffffff1673ffffffffffffffffffffffffffffffffffffffff168152602001908152602001600020805480602002602001604051908101604052809291908181526020016000905b82821015610df257838290600052602060002090600502016040518060a0016040529081600082018054610c6590611c63565b80601f0160208091040260200160405190810160405280929190818152602001828054610c9190611c63565b8015610cde5780601f10610cb357610100808354040283529160200191610cde565b820191906000526020600020905b815481529060010190602001808311610cc157829003601f168201915b50505050508152602001600182018054610cf790611c63565b80601f0160208091040260200160405190810160405280929190818152602001828054610d2390611c63565b8015610d705780601f10610d4557610100808354040283529160200191610d70565b820191906000526020600020905b815481529060010190602001808311610d5357829003601f168201915b5050505050815260200160028201548152602001600382015481526020016004820160009054906101000a900473ffffffffffffffffffffffffffffffffffffffff1673ffffffffffffffffffffffffffffffffffffffff1673ffffffffffffffffffffffffffffffffffffffff168152505081526020019060010190610c32565b50505050905060005b815181101561100d573373ffffffffffffffffffffffffffffffffffffffff16828281518110610e54577f4e487b7100000000000000000000000000000000000000000000000000000000600052603260045260246000fd5b60200260200101516080015173ffffffffffffffffffffffffffffffffffffffff16148015610f12575082604051602001610e8f9190611af6565b60405160208183030381529060405280519060200120828281518110610ede577f4e487b7100000000000000000000000000000000000000000000000000000000600052603260045260246000fd5b602002602001015160000151604051602001610efa9190611af6565b60405160208183030381529060405280519060200120145b15610ffa576000808573ffffffffffffffffffffffffffffffffffffffff1673ffffffffffffffffffffffffffffffffffffffff1681526020019081526020016000208181548110610f8d577f4e487b7100000000000000000000000000000000000000000000000000000000600052603260045260246000fd5b906000526020600020906005020160008082016000610fac9190611701565b600182016000610fbc9190611701565b600282016000905560038201600090556004820160006101000a81549073ffffffffffffffffffffffffffffffffffffffff0219169055505061100d565b808061100590611cc6565b915050610dfb565b5060008060003373ffffffffffffffffffffffffffffffffffffffff1673ffffffffffffffffffffffffffffffffffffffff168152602001908152602001600020805480602002602001604051908101604052809291908181526020016000905b8282101561122e57838290600052602060002090600502016040518060a00160405290816000820180546110a190611c63565b80601f01602080910402602001604051908101604052809291908181526020018280546110cd90611c63565b801561111a5780601f106110ef5761010080835404028352916020019161111a565b820191906000526020600020905b8154815290600101906020018083116110fd57829003601f168201915b5050505050815260200160018201805461113390611c63565b80601f016020809104026020016040519081016040528092919081815260200182805461115f90611c63565b80156111ac5780601f10611181576101008083540402835291602001916111ac565b820191906000526020600020905b81548152906001019060200180831161118f57829003601f168201915b5050505050815260200160028201548152602001600382015481526020016004820160009054906101000a900473ffffffffffffffffffffffffffffffffffffffff1673ffffffffffffffffffffffffffffffffffffffff1673ffffffffffffffffffffffffffffffffffffffff16815250508152602001906001019061106e565b50505050905060005b8151811015611449578473ffffffffffffffffffffffffffffffffffffffff16828281518110611290577f4e487b7100000000000000000000000000000000000000000000000000000000600052603260045260246000fd5b60200260200101516080015173ffffffffffffffffffffffffffffffffffffffff1614801561134e5750836040516020016112cb9190611af6565b6040516020818303038152906040528051906020012082828151811061131a577f4e487b7100000000000000000000000000000000000000000000000000000000600052603260045260246000fd5b6020026020010151600001516040516020016113369190611af6565b60405160208183030381529060405280519060200120145b15611436576000803373ffffffffffffffffffffffffffffffffffffffff1673ffffffffffffffffffffffffffffffffffffffff16815260200190815260200160002081815481106113c9577f4e487b7100000000000000000000000000000000000000000000000000000000600052603260045260246000fd5b9060005260206000209060050201600080820160006113e89190611701565b6001820160006113f89190611701565b600282016000905560038201600090556004820160006101000a81549073ffffffffffffffffffffffffffffffffffffffff02191690555050611449565b808061144190611cc6565b915050611237565b5050505050565b60606000808373ffffffffffffffffffffffffffffffffffffffff1673ffffffffffffffffffffffffffffffffffffffff168152602001908152602001600020805480602002602001604051908101604052809291908181526020016000905b8282101561167057838290600052602060002090600502016040518060a00160405290816000820180546114e390611c63565b80601f016020809104026020016040519081016040528092919081815260200182805461150f90611c63565b801561155c5780601f106115315761010080835404028352916020019161155c565b820191906000526020600020905b81548152906001019060200180831161153f57829003601f168201915b5050505050815260200160018201805461157590611c63565b80601f01602080910402602001604051908101604052809291908181526020018280546115a190611c63565b80156115ee5780601f106115c3576101008083540402835291602001916115ee565b820191906000526020600020905b8154815290600101906020018083116115d157829003601f168201915b5050505050815260200160028201548152602001600382015481526020016004820160009054906101000a900473ffffffffffffffffffffffffffffffffffffffff1673ffffffffffffffffffffffffffffffffffffffff1673ffffffffffffffffffffffffffffffffffffffff1681525050815260200190600101906114b0565b505050509050919050565b82805461168790611c63565b90600052602060002090601f0160209004810192826116a957600085556116f0565b82601f106116c257805160ff19168380011785556116f0565b828001600101855582156116f0579182015b828111156116ef5782518255916020019190600101906116d4565b5b5090506116fd9190611741565b5090565b50805461170d90611c63565b6000825580601f1061171f575061173e565b601f01602090049060005260206000209081019061173d9190611741565b5b50565b5b8082111561175a576000816000905550600101611742565b5090565b600061177161176c84611b54565b611b2f565b90508281526020810184848401111561178957600080fd5b611794848285611c21565b509392505050565b6000813590506117ab81611dad565b92915050565b600082601f8301126117c257600080fd5b81356117d284826020860161175e565b91505092915050565b6000813590506117ea81611dc4565b92915050565b60006020828403121561180257600080fd5b60006118108482850161179c565b91505092915050565b6000806040838503121561182c57600080fd5b600061183a8582860161179c565b925050602083013567ffffffffffffffff81111561185757600080fd5b611863858286016117b1565b9150509250929050565b600080600080600060a0868803121561188557600080fd5b60006118938882890161179c565b955050602086013567ffffffffffffffff8111156118b057600080fd5b6118bc888289016117b1565b945050604086013567ffffffffffffffff8111156118d957600080fd5b6118e5888289016117b1565b93505060606118f6888289016117db565b9250506080611907888289016117db565b9150509295509295909350565b6000806040838503121561192757600080fd5b600083013567ffffffffffffffff81111561194157600080fd5b61194d858286016117b1565b925050602061195e8582860161179c565b9150509250929050565b60006119748383611a6a565b905092915050565b61198581611be5565b82525050565b600061199682611b95565b6119a08185611bb8565b9350836020820285016119b285611b85565b8060005b858110156119ee57848403895281516119cf8582611968565b94506119da83611bab565b925060208a019950506001810190506119b6565b50829750879550505050505092915050565b6000611a0b82611ba0565b611a158185611bc9565b9350611a25818560208601611c30565b611a2e81611d9c565b840191505092915050565b6000611a4482611ba0565b611a4e8185611bda565b9350611a5e818560208601611c30565b80840191505092915050565b600060a0830160008301518482036000860152611a878282611a00565b91505060208301518482036020860152611aa18282611a00565b9150506040830151611ab66040860182611ae7565b506060830151611ac96060860182611ae7565b506080830151611adc608086018261197c565b508091505092915050565b611af081611c17565b82525050565b6000611b028284611a39565b915081905092915050565b60006020820190508181036000830152611b27818461198b565b905092915050565b6000611b39611b4a565b9050611b458282611c95565b919050565b6000604051905090565b600067ffffffffffffffff821115611b6f57611b6e611d6d565b5b611b7882611d9c565b9050602081019050919050565b6000819050602082019050919050565b600081519050919050565b600081519050919050565b6000602082019050919050565b600082825260208201905092915050565b600082825260208201905092915050565b600081905092915050565b6000611bf082611bf7565b9050919050565b600073ffffffffffffffffffffffffffffffffffffffff82169050919050565b6000819050919050565b82818337600083830152505050565b60005b83811015611c4e578082015181840152602081019050611c33565b83811115611c5d576000848401525b50505050565b60006002820490506001821680611c7b57607f821691505b60208210811415611c8f57611c8e611d3e565b5b50919050565b611c9e82611d9c565b810181811067ffffffffffffffff82111715611cbd57611cbc611d6d565b5b80604052505050565b6000611cd182611c17565b91507fffffffffffffffffffffffffffffffffffffffffffffffffffffffffffffffff821415611d0457611d03611d0f565b5b600182019050919050565b7f4e487b7100000000000000000000000000000000000000000000000000000000600052601160045260246000fd5b7f4e487b7100000000000000000000000000000000000000000000000000000000600052602260045260246000fd5b7f4e487b7100000000000000000000000000000000000000000000000000000000600052604160045260246000fd5b6000601f19601f8301169050919050565b611db681611be5565b8114611dc157600080fd5b50565b611dcd81611c17565b8114611dd857600080fd5b5056fea264697066735822122098a3c4de8549d12b53152050f3961c3001828fbd8e8de3613610d6ccf8ff5b6564736f6c63430008040033",
  "linkReferences": {},
  "deployedLinkReferences": {}
}