{
  "_format": "hh-sol-artifact-1",
  "contractName": "Cal3dly",
  "sourceName": "contracts/Cal3dly.sol",
  "abi": [
    {
      "inputs": [
        {
          "internalType": "address",
          "name": "_owner",
          "type": "address"
        },
        {
          "internalType": "string",
          "name": "_title",
          "type": "string"
        },
        {
          "internalType": "string",
          "name": "_description",
          "type": "string"
        },
        {
          "internalType": "uint256",
          "name": "_startTime",
          "type": "uint256"
        },
        {
          "internalType": "uint256",
          "name": "_endTime",
          "type": "uint256"
        }
      ],
      "name": "addAppointment",
      "outputs": [],
      "stateMutability": "nonpayable",
      "type": "function"
    },
    {
      "inputs": [
        {
          "internalType": "string",
          "name": "_title",
          "type": "string"
        },
        {
          "internalType": "address",
          "name": "_attendee",
          "type": "address"
        }
      ],
      "name": "cancelAppointment",
      "outputs": [],
      "stateMutability": "nonpayable",
      "type": "function"
    },
    {
      "inputs": [
        {
          "internalType": "address",
          "name": "_owner",
          "type": "address"
        },
        {
          "internalType": "string",
          "name": "_title",
          "type": "string"
        }
      ],
      "name": "cancelAppointment",
      "outputs": [],
      "stateMutability": "nonpayable",
      "type": "function"
    },
    {
      "inputs": [
        {
          "internalType": "address",
          "name": "_owner",
          "type": "address"
        }
      ],
      "name": "getAppointments",
      "outputs": [
        {
          "components": [
            {
              "internalType": "string",
              "name": "title",
              "type": "string"
            },
            {
              "internalType": "string",
              "name": "description",
              "type": "string"
            },
            {
              "internalType": "uint256",
              "name": "startTime",
              "type": "uint256"
            },
            {
              "internalType": "uint256",
              "name": "endTime",
              "type": "uint256"
            },
            {
              "internalType": "address",
              "name": "attendee",
              "type": "address"
            }
          ],
          "internalType": "struct Cal3dly.Appointment[]",
          "name": "",
          "type": "tuple[]"
        }
      ],
      "stateMutability": "view",
      "type": "function"
    }
  ],
  "bytecode": "0x608060405234801561001057600080fd5b50611e45806100206000396000f3fe608060405234801561001057600080fd5b506004361061004c5760003560e01c80633f6970e9146100515780635daa2a931461006d57806367368edc146100895780637b75cfb6146100a5575b600080fd5b61006b600480360381019061006691906118a1565b6100d5565b005b61008760048036038101906100829190611948565b610388565b005b6100a3600480360381019061009e919061184d565b610c06565b005b6100bf60048036038101906100ba9190611824565b611484565b6040516100cc9190611b41565b60405180910390f35b60006040518060a001604052808681526020018581526020018481526020018381526020013373ffffffffffffffffffffffffffffffffffffffff1681525090506000808773ffffffffffffffffffffffffffffffffffffffff1673ffffffffffffffffffffffffffffffffffffffff168152602001908152602001600020819080600181540180825580915050600190039060005260206000209060050201600090919091909150600082015181600001908051906020019061019a9291906116af565b5060208201518160010190805190602001906101b79291906116af565b50604082015181600201556060820151816003015560808201518160040160006101000a81548173ffffffffffffffffffffffffffffffffffffffff021916908373ffffffffffffffffffffffffffffffffffffffff16021790555050508573ffffffffffffffffffffffffffffffffffffffff163373ffffffffffffffffffffffffffffffffffffffff16146103805785816080019073ffffffffffffffffffffffffffffffffffffffff16908173ffffffffffffffffffffffffffffffffffffffff16815250506000803373ffffffffffffffffffffffffffffffffffffffff1673ffffffffffffffffffffffffffffffffffffffff16815260200190815260200160002081908060018154018082558091505060019003906000526020600020906005020160009091909190915060008201518160000190805190602001906103049291906116af565b5060208201518160010190805190602001906103219291906116af565b50604082015181600201556060820151816003015560808201518160040160006101000a81548173ffffffffffffffffffffffffffffffffffffffff021916908373ffffffffffffffffffffffffffffffffffffffff16021790555050505b505050505050565b60008060003373ffffffffffffffffffffffffffffffffffffffff1673ffffffffffffffffffffffffffffffffffffffff168152602001908152602001600020805480602002602001604051908101604052809291908181526020016000905b828210156105a857838290600052602060002090600502016040518060a001604052908160008201805461041b90611c97565b80601f016020809104026020016040519081016040528092919081815260200182805461044790611c97565b80156104945780601f1061046957610100808354040283529160200191610494565b820191906000526020600020905b81548152906001019060200180831161047757829003601f168201915b505050505081526020016001820180546104ad90611c97565b80601f01602080910402602001604051908101604052809291908181526020018280546104d990611c97565b80156105265780601f106104fb57610100808354040283529160200191610526565b820191906000526020600020905b81548152906001019060200180831161050957829003601f168201915b5050505050815260200160028201548152602001600382015481526020016004820160009054906101000a900473ffffffffffffffffffffffffffffffffffffffff1673ffffffffffffffffffffffffffffffffffffffff1673ffffffffffffffffffffffffffffffffffffffff1681525050815260200190600101906103e8565b50505050905060005b81518110156107c3578273ffffffffffffffffffffffffffffffffffffffff1682828151811061060a577f4e487b7100000000000000000000000000000000000000000000000000000000600052603260045260246000fd5b60200260200101516080015173ffffffffffffffffffffffffffffffffffffffff161480156106c85750836040516020016106459190611b2a565b60405160208183030381529060405280519060200120828281518110610694577f4e487b7100000000000000000000000000000000000000000000000000000000600052603260045260246000fd5b6020026020010151600001516040516020016106b09190611b2a565b60405160208183030381529060405280519060200120145b156107b0576000803373ffffffffffffffffffffffffffffffffffffffff1673ffffffffffffffffffffffffffffffffffffffff1681526020019081526020016000208181548110610743577f4e487b7100000000000000000000000000000000000000000000000000000000600052603260045260246000fd5b9060005260206000209060050201600080820160006107629190611735565b6001820160006107729190611735565b600282016000905560038201600090556004820160006101000a81549073ffffffffffffffffffffffffffffffffffffffff021916905550506107c3565b80806107bb90611cfa565b9150506105b1565b5060008060008473ffffffffffffffffffffffffffffffffffffffff1673ffffffffffffffffffffffffffffffffffffffff168152602001908152602001600020805480602002602001604051908101604052809291908181526020016000905b828210156109e457838290600052602060002090600502016040518060a001604052908160008201805461085790611c97565b80601f016020809104026020016040519081016040528092919081815260200182805461088390611c97565b80156108d05780601f106108a5576101008083540402835291602001916108d0565b820191906000526020600020905b8154815290600101906020018083116108b357829003601f168201915b505050505081526020016001820180546108e990611c97565b80601f016020809104026020016040519081016040528092919081815260200182805461091590611c97565b80156109625780601f1061093757610100808354040283529160200191610962565b820191906000526020600020905b81548152906001019060200180831161094557829003601f168201915b5050505050815260200160028201548152602001600382015481526020016004820160009054906101000a900473ffffffffffffffffffffffffffffffffffffffff1673ffffffffffffffffffffffffffffffffffffffff1673ffffffffffffffffffffffffffffffffffffffff168152505081526020019060010190610824565b50505050905060005b8151811015610bff573373ffffffffffffffffffffffffffffffffffffffff16828281518110610a46577f4e487b7100000000000000000000000000000000000000000000000000000000600052603260045260246000fd5b60200260200101516080015173ffffffffffffffffffffffffffffffffffffffff16148015610b04575084604051602001610a819190611b2a565b60405160208183030381529060405280519060200120828281518110610ad0577f4e487b7100000000000000000000000000000000000000000000000000000000600052603260045260246000fd5b602002602001015160000151604051602001610aec9190611b2a565b60405160208183030381529060405280519060200120145b15610bec576000808573ffffffffffffffffffffffffffffffffffffffff1673ffffffffffffffffffffffffffffffffffffffff1681526020019081526020016000208181548110610b7f577f4e487b7100000000000000000000000000000000000000000000000000000000600052603260045260246000fd5b906000526020600020906005020160008082016000610b9e9190611735565b600182016000610bae9190611735565b600282016000905560038201600090556004820160006101000a81549073ffffffffffffffffffffffffffffffffffffffff02191690555050610bff565b8080610bf790611cfa565b9150506109ed565b5050505050565b60008060008473ffffffffffffffffffffffffffffffffffffffff1673ffffffffffffffffffffffffffffffffffffffff168152602001908152602001600020805480602002602001604051908101604052809291908181526020016000905b82821015610e2657838290600052602060002090600502016040518060a0016040529081600082018054610c9990611c97565b80601f0160208091040260200160405190810160405280929190818152602001828054610cc590611c97565b8015610d125780601f10610ce757610100808354040283529160200191610d12565b820191906000526020600020905b815481529060010190602001808311610cf557829003601f168201915b50505050508152602001600182018054610d2b90611c97565b80601f0160208091040260200160405190810160405280929190818152602001828054610d5790611c97565b8015610da45780601f10610d7957610100808354040283529160200191610da4565b820191906000526020600020905b815481529060010190602001808311610d8757829003601f168201915b5050505050815260200160028201548152602001600382015481526020016004820160009054906101000a900473ffffffffffffffffffffffffffffffffffffffff1673ffffffffffffffffffffffffffffffffffffffff1673ffffffffffffffffffffffffffffffffffffffff168152505081526020019060010190610c66565b50505050905060005b8151811015611041573373ffffffffffffffffffffffffffffffffffffffff16828281518110610e88577f4e487b7100000000000000000000000000000000000000000000000000000000600052603260045260246000fd5b60200260200101516080015173ffffffffffffffffffffffffffffffffffffffff16148015610f46575082604051602001610ec39190611b2a565b60405160208183030381529060405280519060200120828281518110610f12577f4e487b7100000000000000000000000000000000000000000000000000000000600052603260045260246000fd5b602002602001015160000151604051602001610f2e9190611b2a565b60405160208183030381529060405280519060200120145b1561102e576000808573ffffffffffffffffffffffffffffffffffffffff1673ffffffffffffffffffffffffffffffffffffffff1681526020019081526020016000208181548110610fc1577f4e487b7100000000000000000000000000000000000000000000000000000000600052603260045260246000fd5b906000526020600020906005020160008082016000610fe09190611735565b600182016000610ff09190611735565b600282016000905560038201600090556004820160006101000a81549073ffffffffffffffffffffffffffffffffffffffff02191690555050611041565b808061103990611cfa565b915050610e2f565b5060008060003373ffffffffffffffffffffffffffffffffffffffff1673ffffffffffffffffffffffffffffffffffffffff168152602001908152602001600020805480602002602001604051908101604052809291908181526020016000905b8282101561126257838290600052602060002090600502016040518060a00160405290816000820180546110d590611c97565b80601f016020809104026020016040519081016040528092919081815260200182805461110190611c97565b801561114e5780601f106111235761010080835404028352916020019161114e565b820191906000526020600020905b81548152906001019060200180831161113157829003601f168201915b5050505050815260200160018201805461116790611c97565b80601f016020809104026020016040519081016040528092919081815260200182805461119390611c97565b80156111e05780601f106111b5576101008083540402835291602001916111e0565b820191906000526020600020905b8154815290600101906020018083116111c357829003601f168201915b5050505050815260200160028201548152602001600382015481526020016004820160009054906101000a900473ffffffffffffffffffffffffffffffffffffffff1673ffffffffffffffffffffffffffffffffffffffff1673ffffffffffffffffffffffffffffffffffffffff1681525050815260200190600101906110a2565b50505050905060005b815181101561147d578473ffffffffffffffffffffffffffffffffffffffff168282815181106112c4577f4e487b7100000000000000000000000000000000000000000000000000000000600052603260045260246000fd5b60200260200101516080015173ffffffffffffffffffffffffffffffffffffffff161480156113825750836040516020016112ff9190611b2a565b6040516020818303038152906040528051906020012082828151811061134e577f4e487b7100000000000000000000000000000000000000000000000000000000600052603260045260246000fd5b60200260200101516000015160405160200161136a9190611b2a565b60405160208183030381529060405280519060200120145b1561146a576000803373ffffffffffffffffffffffffffffffffffffffff1673ffffffffffffffffffffffffffffffffffffffff16815260200190815260200160002081815481106113fd577f4e487b7100000000000000000000000000000000000000000000000000000000600052603260045260246000fd5b90600052602060002090600502016000808201600061141c9190611735565b60018201600061142c9190611735565b600282016000905560038201600090556004820160006101000a81549073ffffffffffffffffffffffffffffffffffffffff0219169055505061147d565b808061147590611cfa565b91505061126b565b5050505050565b60606000808373ffffffffffffffffffffffffffffffffffffffff1673ffffffffffffffffffffffffffffffffffffffff168152602001908152602001600020805480602002602001604051908101604052809291908181526020016000905b828210156116a457838290600052602060002090600502016040518060a001604052908160008201805461151790611c97565b80601f016020809104026020016040519081016040528092919081815260200182805461154390611c97565b80156115905780601f1061156557610100808354040283529160200191611590565b820191906000526020600020905b81548152906001019060200180831161157357829003601f168201915b505050505081526020016001820180546115a990611c97565b80601f01602080910402602001604051908101604052809291908181526020018280546115d590611c97565b80156116225780601f106115f757610100808354040283529160200191611622565b820191906000526020600020905b81548152906001019060200180831161160557829003601f168201915b5050505050815260200160028201548152602001600382015481526020016004820160009054906101000a900473ffffffffffffffffffffffffffffffffffffffff1673ffffffffffffffffffffffffffffffffffffffff1673ffffffffffffffffffffffffffffffffffffffff1681525050815260200190600101906114e4565b505050509050919050565b8280546116bb90611c97565b90600052602060002090601f0160209004810192826116dd5760008555611724565b82601f106116f657805160ff1916838001178555611724565b82800160010185558215611724579182015b82811115611723578251825591602001919060010190611708565b5b5090506117319190611775565b5090565b50805461174190611c97565b6000825580601f106117535750611772565b601f0160209004906000526020600020908101906117719190611775565b5b50565b5b8082111561178e576000816000905550600101611776565b5090565b60006117a56117a084611b88565b611b63565b9050828152602081018484840111156117bd57600080fd5b6117c8848285611c55565b509392505050565b6000813590506117df81611de1565b92915050565b600082601f8301126117f657600080fd5b8135611806848260208601611792565b91505092915050565b60008135905061181e81611df8565b92915050565b60006020828403121561183657600080fd5b6000611844848285016117d0565b91505092915050565b6000806040838503121561186057600080fd5b600061186e858286016117d0565b925050602083013567ffffffffffffffff81111561188b57600080fd5b611897858286016117e5565b9150509250929050565b600080600080600060a086880312156118b957600080fd5b60006118c7888289016117d0565b955050602086013567ffffffffffffffff8111156118e457600080fd5b6118f0888289016117e5565b945050604086013567ffffffffffffffff81111561190d57600080fd5b611919888289016117e5565b935050606061192a8882890161180f565b925050608061193b8882890161180f565b9150509295509295909350565b6000806040838503121561195b57600080fd5b600083013567ffffffffffffffff81111561197557600080fd5b611981858286016117e5565b9250506020611992858286016117d0565b9150509250929050565b60006119a88383611a9e565b905092915050565b6119b981611c19565b82525050565b60006119ca82611bc9565b6119d48185611bec565b9350836020820285016119e685611bb9565b8060005b85811015611a225784840389528151611a03858261199c565b9450611a0e83611bdf565b925060208a019950506001810190506119ea565b50829750879550505050505092915050565b6000611a3f82611bd4565b611a498185611bfd565b9350611a59818560208601611c64565b611a6281611dd0565b840191505092915050565b6000611a7882611bd4565b611a828185611c0e565b9350611a92818560208601611c64565b80840191505092915050565b600060a0830160008301518482036000860152611abb8282611a34565b91505060208301518482036020860152611ad58282611a34565b9150506040830151611aea6040860182611b1b565b506060830151611afd6060860182611b1b565b506080830151611b1060808601826119b0565b508091505092915050565b611b2481611c4b565b82525050565b6000611b368284611a6d565b915081905092915050565b60006020820190508181036000830152611b5b81846119bf565b905092915050565b6000611b6d611b7e565b9050611b798282611cc9565b919050565b6000604051905090565b600067ffffffffffffffff821115611ba357611ba2611da1565b5b611bac82611dd0565b9050602081019050919050565b6000819050602082019050919050565b600081519050919050565b600081519050919050565b6000602082019050919050565b600082825260208201905092915050565b600082825260208201905092915050565b600081905092915050565b6000611c2482611c2b565b9050919050565b600073ffffffffffffffffffffffffffffffffffffffff82169050919050565b6000819050919050565b82818337600083830152505050565b60005b83811015611c82578082015181840152602081019050611c67565b83811115611c91576000848401525b50505050565b60006002820490506001821680611caf57607f821691505b60208210811415611cc357611cc2611d72565b5b50919050565b611cd282611dd0565b810181811067ffffffffffffffff82111715611cf157611cf0611da1565b5b80604052505050565b6000611d0582611c4b565b91507fffffffffffffffffffffffffffffffffffffffffffffffffffffffffffffffff821415611d3857611d37611d43565b5b600182019050919050565b7f4e487b7100000000000000000000000000000000000000000000000000000000600052601160045260246000fd5b7f4e487b7100000000000000000000000000000000000000000000000000000000600052602260045260246000fd5b7f4e487b7100000000000000000000000000000000000000000000000000000000600052604160045260246000fd5b6000601f19601f8301169050919050565b611dea81611c19565b8114611df557600080fd5b50565b611e0181611c4b565b8114611e0c57600080fd5b5056fea2646970667358221220c5f112c1d71742b33cdbf5f53b82e8a5e4a56bcc2225823707117b077597584b64736f6c63430008040033",
  "linkReferences": {},
  "deployedLinkReferences": {}
}