{
  "_format": "hh-sol-artifact-1",
  "contractName": "Cal3dly",
  "sourceName": "contracts/Cal3dly.sol",
  "abi": [
    {
      "inputs": [
        {
          "internalType": "address",
          "name": "_owner",
          "type": "address"
        },
        {
          "internalType": "string",
          "name": "_title",
          "type": "string"
        },
        {
          "internalType": "string",
          "name": "_description",
          "type": "string"
        },
        {
          "internalType": "uint256",
          "name": "_startTime",
          "type": "uint256"
        },
        {
          "internalType": "uint256",
          "name": "_endTime",
          "type": "uint256"
        }
      ],
      "name": "addAppointment",
      "outputs": [],
      "stateMutability": "nonpayable",
      "type": "function"
    },
    {
      "inputs": [
        {
          "internalType": "address",
          "name": "_attendee",
          "type": "address"
        }
      ],
      "name": "cancelAppointment",
      "outputs": [],
      "stateMutability": "nonpayable",
      "type": "function"
    },
    {
      "inputs": [
        {
          "internalType": "address",
          "name": "_owner",
          "type": "address"
        },
        {
          "internalType": "string",
          "name": "_title",
          "type": "string"
        }
      ],
      "name": "cancelAppointment",
      "outputs": [],
      "stateMutability": "nonpayable",
      "type": "function"
    },
    {
      "inputs": [
        {
          "internalType": "address",
          "name": "_owner",
          "type": "address"
        }
      ],
      "name": "getAppointments",
      "outputs": [
        {
          "components": [
            {
              "internalType": "string",
              "name": "title",
              "type": "string"
            },
            {
              "internalType": "string",
              "name": "description",
              "type": "string"
            },
            {
              "internalType": "uint256",
              "name": "startTime",
              "type": "uint256"
            },
            {
              "internalType": "uint256",
              "name": "endTime",
              "type": "uint256"
            },
            {
              "internalType": "address",
              "name": "attendee",
              "type": "address"
            }
          ],
          "internalType": "struct Cal3dly.Appointment[]",
          "name": "",
          "type": "tuple[]"
        }
      ],
      "stateMutability": "view",
      "type": "function"
    }
  ],
  "bytecode": "0x608060405234801561001057600080fd5b50611370806100206000396000f3fe608060405234801561001057600080fd5b506004361061004c5760003560e01c806322277df7146100515780633f6970e91461006d57806367368edc146100895780637b75cfb6146100a5575b600080fd5b61006b60048036038101906100669190610da3565b6100d5565b005b61008760048036038101906100829190610e20565b61047a565b005b6100a3600480360381019061009e9190610dcc565b6105c2565b005b6100bf60048036038101906100ba9190610da3565b610a03565b6040516100cc919061106c565b60405180910390f35b60008060003373ffffffffffffffffffffffffffffffffffffffff1673ffffffffffffffffffffffffffffffffffffffff168152602001908152602001600020805480602002602001604051908101604052809291908181526020016000905b828210156102f557838290600052602060002090600502016040518060a0016040529081600082018054610168906111c2565b80601f0160208091040260200160405190810160405280929190818152602001828054610194906111c2565b80156101e15780601f106101b6576101008083540402835291602001916101e1565b820191906000526020600020905b8154815290600101906020018083116101c457829003601f168201915b505050505081526020016001820180546101fa906111c2565b80601f0160208091040260200160405190810160405280929190818152602001828054610226906111c2565b80156102735780601f1061024857610100808354040283529160200191610273565b820191906000526020600020905b81548152906001019060200180831161025657829003601f168201915b5050505050815260200160028201548152602001600382015481526020016004820160009054906101000a900473ffffffffffffffffffffffffffffffffffffffff1673ffffffffffffffffffffffffffffffffffffffff1673ffffffffffffffffffffffffffffffffffffffff168152505081526020019060010190610135565b50505050905060005b8151811015610475578273ffffffffffffffffffffffffffffffffffffffff16828281518110610357577f4e487b7100000000000000000000000000000000000000000000000000000000600052603260045260246000fd5b60200260200101516080015173ffffffffffffffffffffffffffffffffffffffff161415610462576000803373ffffffffffffffffffffffffffffffffffffffff1673ffffffffffffffffffffffffffffffffffffffff16815260200190815260200160002081815481106103f5577f4e487b7100000000000000000000000000000000000000000000000000000000600052603260045260246000fd5b9060005260206000209060050201600080820160006104149190610c2e565b6001820160006104249190610c2e565b600282016000905560038201600090556004820160006101000a81549073ffffffffffffffffffffffffffffffffffffffff02191690555050610475565b808061046d90611225565b9150506102fe565b505050565b60006040518060a001604052808681526020018581526020018481526020018381526020013373ffffffffffffffffffffffffffffffffffffffff1681525090506000808773ffffffffffffffffffffffffffffffffffffffff1673ffffffffffffffffffffffffffffffffffffffff168152602001908152602001600020819080600181540180825580915050600190039060005260206000209060050201600090919091909150600082015181600001908051906020019061053f929190610c6e565b50602082015181600101908051906020019061055c929190610c6e565b50604082015181600201556060820151816003015560808201518160040160006101000a81548173ffffffffffffffffffffffffffffffffffffffff021916908373ffffffffffffffffffffffffffffffffffffffff1602179055505050505050505050565b60008060008473ffffffffffffffffffffffffffffffffffffffff1673ffffffffffffffffffffffffffffffffffffffff168152602001908152602001600020805480602002602001604051908101604052809291908181526020016000905b828210156107e257838290600052602060002090600502016040518060a0016040529081600082018054610655906111c2565b80601f0160208091040260200160405190810160405280929190818152602001828054610681906111c2565b80156106ce5780601f106106a3576101008083540402835291602001916106ce565b820191906000526020600020905b8154815290600101906020018083116106b157829003601f168201915b505050505081526020016001820180546106e7906111c2565b80601f0160208091040260200160405190810160405280929190818152602001828054610713906111c2565b80156107605780601f1061073557610100808354040283529160200191610760565b820191906000526020600020905b81548152906001019060200180831161074357829003601f168201915b5050505050815260200160028201548152602001600382015481526020016004820160009054906101000a900473ffffffffffffffffffffffffffffffffffffffff1673ffffffffffffffffffffffffffffffffffffffff1673ffffffffffffffffffffffffffffffffffffffff168152505081526020019060010190610622565b50505050905060005b81518110156109fd573373ffffffffffffffffffffffffffffffffffffffff16828281518110610844577f4e487b7100000000000000000000000000000000000000000000000000000000600052603260045260246000fd5b60200260200101516080015173ffffffffffffffffffffffffffffffffffffffff1614801561090257508260405160200161087f9190611055565b604051602081830303815290604052805190602001208282815181106108ce577f4e487b7100000000000000000000000000000000000000000000000000000000600052603260045260246000fd5b6020026020010151600001516040516020016108ea9190611055565b60405160208183030381529060405280519060200120145b156109ea576000808573ffffffffffffffffffffffffffffffffffffffff1673ffffffffffffffffffffffffffffffffffffffff168152602001908152602001600020818154811061097d577f4e487b7100000000000000000000000000000000000000000000000000000000600052603260045260246000fd5b90600052602060002090600502016000808201600061099c9190610c2e565b6001820160006109ac9190610c2e565b600282016000905560038201600090556004820160006101000a81549073ffffffffffffffffffffffffffffffffffffffff021916905550506109fd565b80806109f590611225565b9150506107eb565b50505050565b60606000808373ffffffffffffffffffffffffffffffffffffffff1673ffffffffffffffffffffffffffffffffffffffff168152602001908152602001600020805480602002602001604051908101604052809291908181526020016000905b82821015610c2357838290600052602060002090600502016040518060a0016040529081600082018054610a96906111c2565b80601f0160208091040260200160405190810160405280929190818152602001828054610ac2906111c2565b8015610b0f5780601f10610ae457610100808354040283529160200191610b0f565b820191906000526020600020905b815481529060010190602001808311610af257829003601f168201915b50505050508152602001600182018054610b28906111c2565b80601f0160208091040260200160405190810160405280929190818152602001828054610b54906111c2565b8015610ba15780601f10610b7657610100808354040283529160200191610ba1565b820191906000526020600020905b815481529060010190602001808311610b8457829003601f168201915b5050505050815260200160028201548152602001600382015481526020016004820160009054906101000a900473ffffffffffffffffffffffffffffffffffffffff1673ffffffffffffffffffffffffffffffffffffffff1673ffffffffffffffffffffffffffffffffffffffff168152505081526020019060010190610a63565b505050509050919050565b508054610c3a906111c2565b6000825580601f10610c4c5750610c6b565b601f016020900490600052602060002090810190610c6a9190610cf4565b5b50565b828054610c7a906111c2565b90600052602060002090601f016020900481019282610c9c5760008555610ce3565b82601f10610cb557805160ff1916838001178555610ce3565b82800160010185558215610ce3579182015b82811115610ce2578251825591602001919060010190610cc7565b5b509050610cf09190610cf4565b5090565b5b80821115610d0d576000816000905550600101610cf5565b5090565b6000610d24610d1f846110b3565b61108e565b905082815260208101848484011115610d3c57600080fd5b610d47848285611180565b509392505050565b600081359050610d5e8161130c565b92915050565b600082601f830112610d7557600080fd5b8135610d85848260208601610d11565b91505092915050565b600081359050610d9d81611323565b92915050565b600060208284031215610db557600080fd5b6000610dc384828501610d4f565b91505092915050565b60008060408385031215610ddf57600080fd5b6000610ded85828601610d4f565b925050602083013567ffffffffffffffff811115610e0a57600080fd5b610e1685828601610d64565b9150509250929050565b600080600080600060a08688031215610e3857600080fd5b6000610e4688828901610d4f565b955050602086013567ffffffffffffffff811115610e6357600080fd5b610e6f88828901610d64565b945050604086013567ffffffffffffffff811115610e8c57600080fd5b610e9888828901610d64565b9350506060610ea988828901610d8e565b9250506080610eba88828901610d8e565b9150509295509295909350565b6000610ed38383610fc9565b905092915050565b610ee481611144565b82525050565b6000610ef5826110f4565b610eff8185611117565b935083602082028501610f11856110e4565b8060005b85811015610f4d5784840389528151610f2e8582610ec7565b9450610f398361110a565b925060208a01995050600181019050610f15565b50829750879550505050505092915050565b6000610f6a826110ff565b610f748185611128565b9350610f8481856020860161118f565b610f8d816112fb565b840191505092915050565b6000610fa3826110ff565b610fad8185611139565b9350610fbd81856020860161118f565b80840191505092915050565b600060a0830160008301518482036000860152610fe68282610f5f565b915050602083015184820360208601526110008282610f5f565b91505060408301516110156040860182611046565b5060608301516110286060860182611046565b50608083015161103b6080860182610edb565b508091505092915050565b61104f81611176565b82525050565b60006110618284610f98565b915081905092915050565b600060208201905081810360008301526110868184610eea565b905092915050565b60006110986110a9565b90506110a482826111f4565b919050565b6000604051905090565b600067ffffffffffffffff8211156110ce576110cd6112cc565b5b6110d7826112fb565b9050602081019050919050565b6000819050602082019050919050565b600081519050919050565b600081519050919050565b6000602082019050919050565b600082825260208201905092915050565b600082825260208201905092915050565b600081905092915050565b600061114f82611156565b9050919050565b600073ffffffffffffffffffffffffffffffffffffffff82169050919050565b6000819050919050565b82818337600083830152505050565b60005b838110156111ad578082015181840152602081019050611192565b838111156111bc576000848401525b50505050565b600060028204905060018216806111da57607f821691505b602082108114156111ee576111ed61129d565b5b50919050565b6111fd826112fb565b810181811067ffffffffffffffff8211171561121c5761121b6112cc565b5b80604052505050565b600061123082611176565b91507fffffffffffffffffffffffffffffffffffffffffffffffffffffffffffffffff8214156112635761126261126e565b5b600182019050919050565b7f4e487b7100000000000000000000000000000000000000000000000000000000600052601160045260246000fd5b7f4e487b7100000000000000000000000000000000000000000000000000000000600052602260045260246000fd5b7f4e487b7100000000000000000000000000000000000000000000000000000000600052604160045260246000fd5b6000601f19601f8301169050919050565b61131581611144565b811461132057600080fd5b50565b61132c81611176565b811461133757600080fd5b5056fea26469706673582212209e005182ddd9fee854c32b86dbaea280663a0062c188fd02acf39d02c8bfa22564736f6c63430008040033",
  "linkReferences": {},
  "deployedLinkReferences": {}
}