{
  "_format": "hh-sol-artifact-1",
  "contractName": "Cal3dly",
  "sourceName": "contracts/Cal3dly.sol",
  "abi": [
    {
      "inputs": [],
      "stateMutability": "nonpayable",
      "type": "constructor"
    },
    {
      "inputs": [
        {
          "internalType": "address",
          "name": "_owner",
          "type": "address"
        },
        {
          "internalType": "string",
          "name": "_title",
          "type": "string"
        },
        {
          "internalType": "string",
          "name": "_description",
          "type": "string"
        },
        {
          "internalType": "uint256",
          "name": "_startTime",
          "type": "uint256"
        },
        {
          "internalType": "uint256",
          "name": "_endTime",
          "type": "uint256"
        }
      ],
      "name": "addAppointment",
      "outputs": [],
      "stateMutability": "nonpayable",
      "type": "function"
    },
    {
      "inputs": [
        {
          "internalType": "address",
          "name": "",
          "type": "address"
        },
        {
          "internalType": "uint256",
          "name": "",
          "type": "uint256"
        }
      ],
      "name": "apts",
      "outputs": [
        {
          "internalType": "string",
          "name": "title",
          "type": "string"
        },
        {
          "internalType": "string",
          "name": "description",
          "type": "string"
        },
        {
          "internalType": "uint256",
          "name": "startTime",
          "type": "uint256"
        },
        {
          "internalType": "uint256",
          "name": "endTime",
          "type": "uint256"
        },
        {
          "internalType": "address",
          "name": "attendee",
          "type": "address"
        }
      ],
      "stateMutability": "view",
      "type": "function"
    },
    {
      "inputs": [
        {
          "internalType": "address",
          "name": "_attendee",
          "type": "address"
        }
      ],
      "name": "cancelAppointment",
      "outputs": [],
      "stateMutability": "nonpayable",
      "type": "function"
    },
    {
      "inputs": [
        {
          "internalType": "address",
          "name": "_owner",
          "type": "address"
        },
        {
          "internalType": "string",
          "name": "_title",
          "type": "string"
        }
      ],
      "name": "cancelAppointment",
      "outputs": [],
      "stateMutability": "nonpayable",
      "type": "function"
    },
    {
      "inputs": [
        {
          "internalType": "address",
          "name": "_owner",
          "type": "address"
        }
      ],
      "name": "getAppointments",
      "outputs": [
        {
          "components": [
            {
              "internalType": "string",
              "name": "title",
              "type": "string"
            },
            {
              "internalType": "string",
              "name": "description",
              "type": "string"
            },
            {
              "internalType": "uint256",
              "name": "startTime",
              "type": "uint256"
            },
            {
              "internalType": "uint256",
              "name": "endTime",
              "type": "uint256"
            },
            {
              "internalType": "address",
              "name": "attendee",
              "type": "address"
            }
          ],
          "internalType": "struct Cal3dly.Appointment[]",
          "name": "",
          "type": "tuple[]"
        }
      ],
      "stateMutability": "view",
      "type": "function"
    }
  ],
  "bytecode": "0x608060405234801561001057600080fd5b50611637806100206000396000f3fe608060405234801561001057600080fd5b50600436106100575760003560e01c806301a6a38a1461005c57806322277df7146100905780633f6970e9146100ac57806367368edc146100c85780637b75cfb6146100e4575b600080fd5b61007660048036038101906100719190611089565b610114565b6040516100879594939291906112e3565b60405180910390f35b6100aa60048036038101906100a59190610f65565b610297565b005b6100c660048036038101906100c19190610fe2565b61063c565b005b6100e260048036038101906100dd9190610f8e565b610784565b005b6100fe60048036038101906100f99190610f65565b610bc5565b60405161010b91906112c1565b60405180910390f35b6000602052816000526040600020818154811061013057600080fd5b90600052602060002090600502016000915091505080600001805461015490611489565b80601f016020809104026020016040519081016040528092919081815260200182805461018090611489565b80156101cd5780601f106101a2576101008083540402835291602001916101cd565b820191906000526020600020905b8154815290600101906020018083116101b057829003601f168201915b5050505050908060010180546101e290611489565b80601f016020809104026020016040519081016040528092919081815260200182805461020e90611489565b801561025b5780601f106102305761010080835404028352916020019161025b565b820191906000526020600020905b81548152906001019060200180831161023e57829003601f168201915b5050505050908060020154908060030154908060040160009054906101000a900473ffffffffffffffffffffffffffffffffffffffff16905085565b60008060003373ffffffffffffffffffffffffffffffffffffffff1673ffffffffffffffffffffffffffffffffffffffff168152602001908152602001600020805480602002602001604051908101604052809291908181526020016000905b828210156104b757838290600052602060002090600502016040518060a001604052908160008201805461032a90611489565b80601f016020809104026020016040519081016040528092919081815260200182805461035690611489565b80156103a35780601f10610378576101008083540402835291602001916103a3565b820191906000526020600020905b81548152906001019060200180831161038657829003601f168201915b505050505081526020016001820180546103bc90611489565b80601f01602080910402602001604051908101604052809291908181526020018280546103e890611489565b80156104355780601f1061040a57610100808354040283529160200191610435565b820191906000526020600020905b81548152906001019060200180831161041857829003601f168201915b5050505050815260200160028201548152602001600382015481526020016004820160009054906101000a900473ffffffffffffffffffffffffffffffffffffffff1673ffffffffffffffffffffffffffffffffffffffff1673ffffffffffffffffffffffffffffffffffffffff1681525050815260200190600101906102f7565b50505050905060005b8151811015610637578273ffffffffffffffffffffffffffffffffffffffff16828281518110610519577f4e487b7100000000000000000000000000000000000000000000000000000000600052603260045260246000fd5b60200260200101516080015173ffffffffffffffffffffffffffffffffffffffff161415610624576000803373ffffffffffffffffffffffffffffffffffffffff1673ffffffffffffffffffffffffffffffffffffffff16815260200190815260200160002081815481106105b7577f4e487b7100000000000000000000000000000000000000000000000000000000600052603260045260246000fd5b9060005260206000209060050201600080820160006105d69190610df0565b6001820160006105e69190610df0565b600282016000905560038201600090556004820160006101000a81549073ffffffffffffffffffffffffffffffffffffffff02191690555050610637565b808061062f906114ec565b9150506104c0565b505050565b60006040518060a001604052808681526020018581526020018481526020018381526020013373ffffffffffffffffffffffffffffffffffffffff1681525090506000808773ffffffffffffffffffffffffffffffffffffffff1673ffffffffffffffffffffffffffffffffffffffff1681526020019081526020016000208190806001815401808255809150506001900390600052602060002090600502016000909190919091506000820151816000019080519060200190610701929190610e30565b50602082015181600101908051906020019061071e929190610e30565b50604082015181600201556060820151816003015560808201518160040160006101000a81548173ffffffffffffffffffffffffffffffffffffffff021916908373ffffffffffffffffffffffffffffffffffffffff1602179055505050505050505050565b60008060008473ffffffffffffffffffffffffffffffffffffffff1673ffffffffffffffffffffffffffffffffffffffff168152602001908152602001600020805480602002602001604051908101604052809291908181526020016000905b828210156109a457838290600052602060002090600502016040518060a001604052908160008201805461081790611489565b80601f016020809104026020016040519081016040528092919081815260200182805461084390611489565b80156108905780601f1061086557610100808354040283529160200191610890565b820191906000526020600020905b81548152906001019060200180831161087357829003601f168201915b505050505081526020016001820180546108a990611489565b80601f01602080910402602001604051908101604052809291908181526020018280546108d590611489565b80156109225780601f106108f757610100808354040283529160200191610922565b820191906000526020600020905b81548152906001019060200180831161090557829003601f168201915b5050505050815260200160028201548152602001600382015481526020016004820160009054906101000a900473ffffffffffffffffffffffffffffffffffffffff1673ffffffffffffffffffffffffffffffffffffffff1673ffffffffffffffffffffffffffffffffffffffff1681525050815260200190600101906107e4565b50505050905060005b8151811015610bbf573373ffffffffffffffffffffffffffffffffffffffff16828281518110610a06577f4e487b7100000000000000000000000000000000000000000000000000000000600052603260045260246000fd5b60200260200101516080015173ffffffffffffffffffffffffffffffffffffffff16148015610ac4575082604051602001610a4191906112aa565b60405160208183030381529060405280519060200120828281518110610a90577f4e487b7100000000000000000000000000000000000000000000000000000000600052603260045260246000fd5b602002602001015160000151604051602001610aac91906112aa565b60405160208183030381529060405280519060200120145b15610bac576000808573ffffffffffffffffffffffffffffffffffffffff1673ffffffffffffffffffffffffffffffffffffffff1681526020019081526020016000208181548110610b3f577f4e487b7100000000000000000000000000000000000000000000000000000000600052603260045260246000fd5b906000526020600020906005020160008082016000610b5e9190610df0565b600182016000610b6e9190610df0565b600282016000905560038201600090556004820160006101000a81549073ffffffffffffffffffffffffffffffffffffffff02191690555050610bbf565b8080610bb7906114ec565b9150506109ad565b50505050565b60606000808373ffffffffffffffffffffffffffffffffffffffff1673ffffffffffffffffffffffffffffffffffffffff168152602001908152602001600020805480602002602001604051908101604052809291908181526020016000905b82821015610de557838290600052602060002090600502016040518060a0016040529081600082018054610c5890611489565b80601f0160208091040260200160405190810160405280929190818152602001828054610c8490611489565b8015610cd15780601f10610ca657610100808354040283529160200191610cd1565b820191906000526020600020905b815481529060010190602001808311610cb457829003601f168201915b50505050508152602001600182018054610cea90611489565b80601f0160208091040260200160405190810160405280929190818152602001828054610d1690611489565b8015610d635780601f10610d3857610100808354040283529160200191610d63565b820191906000526020600020905b815481529060010190602001808311610d4657829003601f168201915b5050505050815260200160028201548152602001600382015481526020016004820160009054906101000a900473ffffffffffffffffffffffffffffffffffffffff1673ffffffffffffffffffffffffffffffffffffffff1673ffffffffffffffffffffffffffffffffffffffff168152505081526020019060010190610c25565b505050509050919050565b508054610dfc90611489565b6000825580601f10610e0e5750610e2d565b601f016020900490600052602060002090810190610e2c9190610eb6565b5b50565b828054610e3c90611489565b90600052602060002090601f016020900481019282610e5e5760008555610ea5565b82601f10610e7757805160ff1916838001178555610ea5565b82800160010185558215610ea5579182015b82811115610ea4578251825591602001919060010190610e89565b5b509050610eb29190610eb6565b5090565b5b80821115610ecf576000816000905550600101610eb7565b5090565b6000610ee6610ee184611369565b611344565b905082815260208101848484011115610efe57600080fd5b610f09848285611447565b509392505050565b600081359050610f20816115d3565b92915050565b600082601f830112610f3757600080fd5b8135610f47848260208601610ed3565b91505092915050565b600081359050610f5f816115ea565b92915050565b600060208284031215610f7757600080fd5b6000610f8584828501610f11565b91505092915050565b60008060408385031215610fa157600080fd5b6000610faf85828601610f11565b925050602083013567ffffffffffffffff811115610fcc57600080fd5b610fd885828601610f26565b9150509250929050565b600080600080600060a08688031215610ffa57600080fd5b600061100888828901610f11565b955050602086013567ffffffffffffffff81111561102557600080fd5b61103188828901610f26565b945050604086013567ffffffffffffffff81111561104e57600080fd5b61105a88828901610f26565b935050606061106b88828901610f50565b925050608061107c88828901610f50565b9150509295509295909350565b6000806040838503121561109c57600080fd5b60006110aa85828601610f11565b92505060206110bb85828601610f50565b9150509250929050565b60006110d1838361120f565b905092915050565b6110e28161140b565b82525050565b6110f18161140b565b82525050565b6000611102826113aa565b61110c81856113cd565b93508360208202850161111e8561139a565b8060005b8581101561115a578484038952815161113b85826110c5565b9450611146836113c0565b925060208a01995050600181019050611122565b50829750879550505050505092915050565b6000611177826113b5565b61118181856113de565b9350611191818560208601611456565b61119a816115c2565b840191505092915050565b60006111b0826113b5565b6111ba81856113ef565b93506111ca818560208601611456565b6111d3816115c2565b840191505092915050565b60006111e9826113b5565b6111f38185611400565b9350611203818560208601611456565b80840191505092915050565b600060a083016000830151848203600086015261122c828261116c565b91505060208301518482036020860152611246828261116c565b915050604083015161125b604086018261128c565b50606083015161126e606086018261128c565b50608083015161128160808601826110d9565b508091505092915050565b6112958161143d565b82525050565b6112a48161143d565b82525050565b60006112b682846111de565b915081905092915050565b600060208201905081810360008301526112db81846110f7565b905092915050565b600060a08201905081810360008301526112fd81886111a5565b9050818103602083015261131181876111a5565b9050611320604083018661129b565b61132d606083018561129b565b61133a60808301846110e8565b9695505050505050565b600061134e61135f565b905061135a82826114bb565b919050565b6000604051905090565b600067ffffffffffffffff82111561138457611383611593565b5b61138d826115c2565b9050602081019050919050565b6000819050602082019050919050565b600081519050919050565b600081519050919050565b6000602082019050919050565b600082825260208201905092915050565b600082825260208201905092915050565b600082825260208201905092915050565b600081905092915050565b60006114168261141d565b9050919050565b600073ffffffffffffffffffffffffffffffffffffffff82169050919050565b6000819050919050565b82818337600083830152505050565b60005b83811015611474578082015181840152602081019050611459565b83811115611483576000848401525b50505050565b600060028204905060018216806114a157607f821691505b602082108114156114b5576114b4611564565b5b50919050565b6114c4826115c2565b810181811067ffffffffffffffff821117156114e3576114e2611593565b5b80604052505050565b60006114f78261143d565b91507fffffffffffffffffffffffffffffffffffffffffffffffffffffffffffffffff82141561152a57611529611535565b5b600182019050919050565b7f4e487b7100000000000000000000000000000000000000000000000000000000600052601160045260246000fd5b7f4e487b7100000000000000000000000000000000000000000000000000000000600052602260045260246000fd5b7f4e487b7100000000000000000000000000000000000000000000000000000000600052604160045260246000fd5b6000601f19601f8301169050919050565b6115dc8161140b565b81146115e757600080fd5b50565b6115f38161143d565b81146115fe57600080fd5b5056fea2646970667358221220c8cc304205e1283cb21ba6282a0dc439622cca0a9ad93529937d298c8a841fb364736f6c63430008040033",
  "linkReferences": {},
  "deployedLinkReferences": {}
}